:1000000000000120190200000102000003020000AC
:1000100005020000070200000902000000000000C5
:100020000000000000000000000000000B020000C3
:100030000D020000000000000F020000110200008D
:10004000E524000013020000192A0000130200003A
:100050001302000013020000152900001302000023
:10006000130200001302000013020000130200003C
:10007000130200001302000013020000130200002C
:1000800013020000412B00001302000013020000C5
:1000900013020000130200004932000013020000A6
:1000A00013020000130200001302000013020000FC
:1000B0001302000013020000000000000000000016
:1000C00013020000130200001302000013020000DC
:1000D00013020000130200001302000000000000E1
:1000E0000000000000000000000000000000000010
:1000F0000000000000000000000000000000000000
:1001000000000000000000000000000000000000EF
:1001100000000000000000000000000000000000DF
:1001200000000000000000000000000000000000CF
:1001300000000000000000000000000000000000BF
:1001400000000000000000000000000000000000AF
:10015000000000000000000000000000000000009F
:10016000000000000000000000000000000000008F
:10017000000000000000000000000000000000007F
:10018000000000000000000000000000000000006F
:10019000000000000000000000000000000000005F
:1001A000000000000000000000000000000000004F
:1001B000000000000000000000000000000000003F
:1001C000000000000000000000000000000000002F
:1001D000000000000000000000000000000000001F
:1001E000000000000000000000000000000000000F
:1001F00000000000000000000000000000000000FF
:10020000FEE7FEE7FEE7FEE7FEE7FEE7FEE7FEE7C6
:10021000FEE7FEE700F002B8FFF7FCBF0F484FF023
:100220000701884385460E4880470E48016841F41F
:1002300070010160BFF34F8FBFF36F8F00F01AB8EA
:1002400009480A490A4A884207D0521A05D0037859
:1002500001300B700131013AF9D1704700000120E3
:100260004910000088ED00E0883700000000002001
:10027000000000203A493B480A1A02D00722914365
:100280008D46394939480A1A06D00722914381F32D
:100290000988022282F3148835483649364A00F02C
:1002A00041F836483649374A00F03CF83648374975
:1002B000374A00F037F837483749384A00F032F803
:1002C00037483849384A00F02DF838483849394A13
:1002D00000F028F838483949394A00F023F83948FD
:1002E0003949002200F036F838483949002200F038
:1002F00031F838483849091A03F07EF9374A9047EF
:1003000025482649884205D00268043003B4904746
:1003100003BCF7E700208646EC4600200021304A67
:100320009047FEE7884214D0521A12D003460B437E
:1003300013430324234206D1036804300B600431C5
:10034000043AF9D17047037801300B700131013A5A
:10035000F9D17047884202D002700130FAE7704745
:100360000000012000F80020000001200000012012
:10037000AC3900000000002010000020E403000061
:10038000E403000048370000AC3900000000002002
:100390000000002088370000883700008837000000
:1003A0008837000088370000883700008837000051
:1003B00088370000AC390000BC3900001000002074
:1003C0001000002010000020BC030020BC0300200F
:1003D000BC030020BC030020BC0700204102000039
:0403E000B105000063
:1003E40010DF704700BF184684B003900291019259
:1003F400FEE784B0039002910192FEE782B001907F
:10040400009100BF02B0704700B583B00190019B1A
:100414001B78002B02D0042B04D00AE0074803F019
:100424009BF806E0064803F097F8064801F042FD01
:1004340000BF00BF03B05DF804FB00BF88370000B5
:10044400983700001000002000B589B00023029303
:10045400214B1B68019302F073FE0790079B0693E0
:10046400069B002B04D01D4A43210698FFF7BCFFCE
:1004740001AB1B491846FFF7B3FF0790079B059391
:10048400059B002B04D0154A47210598FFF7ACFFC4
:1004940002AB1946012002F0FFFE0790079B04936C
:1004A400049B002B04D00D4A4B210498FFF79CFFBA
:1004B40002AB184602F07EFF0790079B0393039B51
:1004C400002B04D0054A4F210398FFF78DFF00BF8E
:1004D40009B05DF804FB00BFFC370000A83700003A
:1004E400F703000000B583B00021094801F0BEF90C
:1004F4000190019B0093009B002B04D0054A5921D5
:100504000098FFF771FF00BF03B05DF804FB00BF64
:1005140060000020A837000000B587B06B460022B9
:100524001A605A609A60DA6000238DF8043001235F
:100534008DF80C306B460C4A19460C4801F062FCED
:100544000590059B0493049B002B04D0084A642166
:100554000498FFF749FF00221F21044801F0F6FA2E
:1005640000BF07B05DF804FB0D040000100000207C
:10057400A837000000B583B00A4801F09BFC019045
:10058400019B0093009B002B04D0074A6B21009829
:10059400FFF72AFF002000F0C9F800BF03B05DF8A0
:1005A40004FB00BF10000020A837000008B501209C
:1005B40000F028F9064802F0CFFFFFF745FFFFF7E8
:1005C40091FFFFF7A9FFFFF7D5FF20BFFDE700BFAD
:1005D4000038000082B001904FF0A043184602B0EA
:1005E400704700B585B00190084611461A46034687
:1005F4008DF803300B468DF8023013468DF8013028
:1006040001AB1846FFF7E6FF03909DF803209DF821
:1006140002305B001A439DF801309B001A439DF899
:1006240018301B0242EA03019DF81C301B04019A96
:100634001943039B02F5E07243F8221000BF05B092
:100644005DF804FB00B585B00390002301930023FB
:1006540000930023012201210398FFF7C2FF00BF8A
:1006640005B05DF804FB00B585B003900B468DF82A
:100674000B309DF80B3000220192002200920022E0
:1006840000210398FFF7ADFF00BF05B05DF804FB40
:1006940000B585B0019001AB1846FFF79BFF0390AE
:1006A400019B012202FA03F31946039800F02AF889
:1006B40000BF05B05DF804FB00B585B0019001AB47
:1006C4001846FFF787FF0390019B012202FA03F308
:1006D4001946039800F020F800BF05B05DF804FB4C
:1006E40000B583B001900091009B002B03D10198C9
:1006F400FFF7E2FF02E00198FFF7CAFF00BF03B073
:100704005DF804FB82B001900091019B009AC3F84C
:10071400082500BF02B0704782B001900091019B90
:10072400009AC3F80C2500BF02B0704700B583B02F
:100734000190064A019B13441B7800211846FFF7D9
:10074400CFFF00BF03B05DF804FB00BF1838000002
:1007540000B583B00190064A019B13441B78012124
:100764001846FFF7BDFF00BF03B05DF804FB00BFF0
:100774001838000000B583B00023019305E0019808
:10078400FFF7E6FF019B01330193019B032BF6D98D
:1007940000BF00BF03B05DF804FB000000B583B0E8
:1007A4000023019309E0094A019B13441B7818466E
:1007B400FFF748FF019B01330193019B032BF2D9FF
:1007C400FFF7D8FF00BF03B05DF804FB1838000042
:1007D40000B583B0002301930AE0094A019B134446
:1007E4001B7803211846FFF73EFF019B0133019359
:1007F400019B032BF1D900BF00BF03B05DF804FBDC
:100804001C38000000B583B00190019B03F0010384
:10081400002B01D0FFF7C2FF019B03F00203002B62
:1008240001D0FFF7D5FF00BF03B05DF804FB000063
:1008340084B001900B468DF8033013468DF80230D6
:1008440000230393019B032B3CD89DF80230012B1A
:100854000BD19DF80330012B04D1019BDBB20E3385
:10086400DBB200E000238DF802309DF80330022B48
:100874000FD0022B23DC002B16D0012B1FD11449DF
:10088400019A13465B0013440B449DF802201A702E
:100894001AE00F49019A13465B0013440B440133D9
:1008A4009DF802201A700FE00949019A13465B0073
:1008B40013440B4402339DF802201A7004E007230A
:1008C400039301E007230393039B184604B0704786
:1008D4007400002000B583B0012200210020FFF73E
:1008E400A7FF0190019B002B04D0019B072B01D093
:1008F400019B1CE0072202210120FFF799FF0190D0
:10090400019B002B04D0019B072B01D0019B0EE01F
:10091400042202210020FFF78BFF0190019B002B92
:1009240004D0019B072B01D0019B00E00023184653
:1009340003B05DF804FB00B583B00122022100205E
:10094400FFF776FF0190019B002B04D0019B072B3E
:1009540001D0019B1CE0072202210120FFF768FF60
:100964000190019B002B04D0019B072B01D0019B1C
:100974000EE00A2200210020FFF75AFF0190019B9C
:10098400002B04D0019B072B01D0019B00E0002326
:10099400184603B05DF804FB00B585B001900091E2
:1009A400019B1B88102B02D0112B18D02FE01A4B5F
:1009B4001B68002B0DD1FFF78DFF0390039B002BC9
:1009C40007D0164B1B68002B03D0144B1B680398ED
:1009D4009847114B1B6801330F4A136017E00E4B05
:1009E4001B68013B0C4A13600B4B1B68002B0DD199
:1009F400FFF7A1FF0390039B002B07D0074B1B6855
:100A0400002B03D0054B1B680398984700BF00BF19
:100A140005B05DF804FB00BF8400002080000020C6
:100A2400BFF34F8F00BF064BDB6803F4E062044959
:100A3400044B1343CB60BFF34F8F00BF00BFFDE7F0
:100A440000ED00E00400FA0582B01D4B1B68B3F111
:100A5400FF3F0AD11B4B1B68DBB201931A4B1B6887
:100A64001B0903F00F03009305E0154B1B6801936A
:100A7400164B1B680093019B062B1DD1009B033B67
:100A8400042B17D801A252F823F000BFA50A0000D6
:100A9400A90A0000AD0A0000B10A0000B50A00006E
:100AA40001230AE0012308E0012306E0012304E016
:100AB400012302E0012300E00023184602B070473E
:100AC40030010010E00F00F0E80F00F034010010D6
:100AD40082B0174B1B68DBB20193164B1B681B09D2
:100AE40003F00F030093019B062B1DD1009B033BD6
:100AF400042B17D801A252F823F000BF150B0000F5
:100B0400190B00001D0B0000210B0000250B000039
:100B140001230AE0002308E0002306E0002304E0A8
:100B2400002302E0002300E00023184602B07047CF
:100B3400E00F00F0E80F00F082B01D4B1B68B3F12A
:100B4400FF3F0AD11B4B1B68DBB201931A4B1B6896
:100B54001B0903F00F03009305E0154B1B68019379
:100B6400164B1B680093019B062B1DD1009B033B76
:100B7400042B17D801A252F823F000BF950B0000F4
:100B8400990B00009D0B0000A10B0000A50B0000B9
:100B940001230AE0012308E0012306E0012304E025
:100BA400012302E0012300E00023184602B070474D
:100BB40030010010E00F00F0E80F00F034010010E5
:100BC40082B0174B1B68DBB20193164B1B681B09E1
:100BD40003F00F030093019B062B1DD1009B033BE5
:100BE400042B17D801A252F823F000BF050C000013
:100BF400090C00000D0C0000110C0000150C000085
:100C040001230AE0002308E0002306E0002304E0B7
:100C1400002302E0002300E00023184602B07047DE
:100C2400E00F00F0E80F00F082B01D4B1B68B3F139
:100C3400FF3F0AD11B4B1B68DBB201931A4B1B68A5
:100C44001B0903F00F03009305E0154B1B68019388
:100C5400164B1B680093019B062B1DD1009B033B85
:100C6400042B17D801A252F823F000BF850C000012
:100C7400890C00008D0C0000910C0000950C000004
:100C840001230AE0012308E0012306E0012304E034
:100C9400012302E0012300E00023184602B070475C
:100CA40030010010E00F00F0E80F00F034010010F4
:100CB40082B0174B1B68DBB20193164B1B681B09F0
:100CC40003F00F030093019B062B1DD1009B033BF4
:100CD400042B17D801A252F823F000BFF50C000032
:100CE400F90C0000FD0C0000010D0000050D0000D2
:100CF40001230AE0002308E0002306E0002304E0C7
:100D0400002302E0002300E00023184602B07047ED
:100D1400E00F00F0E80F00F082B0174B1B68DBB265
:100D24000193164B1B681B0903F00F030093019BEF
:100D3400062B1DD1009B033B042B17D801A252F8AC
:100D440023F000BF5D0D0000610D0000650D000083
:100D5400690D00006D0D000001230AE0002308E086
:100D6400002306E0002304E0002302E0002300E067
:100D74000023184602B07047E00F00F0E80F00F0BF
:100D840082B01D4B1B68B3F1FF3F0AD11B4B1B689C
:100D9400DBB201931A4B1B681B0903F00F0300938A
:100DA40005E0154B1B680193164B1B680093019BD0
:100DB400062B1DD1009B033B042B17D801A252F82C
:100DC40023F000BFDD0D0000E10D0000E50D000083
:100DD400E90D0000ED0D000000230AE0002308E007
:100DE400012306E0012304E0012302E0012300E0E3
:100DF4000023184602B0704730010010E00F00F0E5
:100E0400E80F00F03401001082B01D4B1B68B3F1F1
:100E1400FF3F0AD11B4B1B68DBB201931A4B1B68C3
:100E24001B0903F00F03009305E0154B1B680193A6
:100E3400164B1B680093019B062B1DD1009B033BA3
:100E4400042B17D801A252F823F000BF650E00004E
:100E5400690E00006D0E0000710E0000750E00009A
:100E640001230AE0012308E0012306E0012304E052
:100E7400012302E0012300E00023184602B070477A
:100E840030010010E00F00F0E80F00F03401001012
:100E940082B01D4B1B68B3F1FF3F0AD11B4B1B688B
:100EA400DBB201931A4B1B681B0903F00F03009379
:100EB40005E0154B1B680193164B1B680093019BBF
:100EC400062B1DD1009B033B042B17D801A252F81B
:100ED40023F000BFED0E0000F10E0000F50E00003F
:100EE400F90E0000FD0E000001230AE0012308E0D2
:100EF400012306E0012304E0012302E0012300E0D2
:100F04000023184602B0704730010010E00F00F0D3
:100F1400E80F00F03401001082B0154B1B680193F8
:100F2400144B1B680093019B062B1DD1009B033BB4
:100F3400042B17D801A252F823F000BF550F00006C
:100F4400590F00005D0F0000610F0000650F0000E5
:100F540000230AE0002308E0002306E0012304E064
:100F6400012302E0012300E00023184602B0704789
:100F7400300100103401001082B0154B1B6801933E
:100F8400144B1B680093019B062B1DD1009B033B54
:100F9400042B17D801A252F823F000BFB50F0000AC
:100FA400B90F0000BD0F0000C10F0000C50F000005
:100FB40000230AE0002308E0002306E0002304E005
:100FC400012302E0012300E00023184602B0704729
:100FD400300100103401001008B5FFF7CDFF0346BF
:100FE400002B07D04FF010234FF08042D3F8083283
:100FF400C2F8583500BF08BD00BF044BD3F8003415
:10100400002BFAD000BF00BF704700BF00E00140D2
:1010140000B583B00190054A019BC2F80435FFF77F
:10102400EBFF00BF03B05DF804FB00BF00E001402C
:10103400024B034A1A6000BF704700BF0000002043
:101044000090D00308B5FFF7FFFC0346002B06D041
:10105400964B1B681B0A964A03F01F031360FFF7A5
:1010640037FD0346002B02D0924B934A1A60FFF7D8
:1010740063FD0346002B06D0904B1B685B0B904A24
:1010840003F007031360FFF79BFD0346002B05D015
:101094008C4BDB688B4A23F08073D360FFF7C4FD6D
:1010A4000346002B0ED04FF080430022C3F80C21DE
:1010B4004FF080430022C3F810214FF080430022F8
:1010C400C3F83825FFF7F4FD0346002B02D07E4B0E
:1010D40003221A60FFF720FE0346002B0BD07B4B44
:1010E40005221A607A4B01221A607A4B00221A6098
:1010F400794B3F221A60FFF743FE0346002B76D05C
:101104004FF08053754AD3F80434C2F820354FF0B9
:101114008053724AD3F80834C2F824354FF0805310
:101124006E4AD3F80C34C2F828354FF080536B4A1A
:10113400D3F81034C2F82C354FF08053674AD3F8F3
:101144001434C2F830354FF08053644AD3F818345D
:10115400C2F834354FF08053604AD3F81C34C2F8D7
:1011640040354FF080535D4AD3F82034C2F84435FB
:101174004FF08053594AD3F82434C2F848354FF01D
:101184008053564AD3F82834C2F84C354FF0805374
:10119400524AD3F82C34C2F850354FF080534F4A9A
:1011A400D3F83034C2F854354FF080534B4AD3F857
:1011B4003434C2F860354FF08053484AD3F8383499
:1011C400C2F864354FF08053444AD3F83C34C2F833
:1011D40068354FF08053414AD3F84034C2F86C3537
:1011E4004FF080533D4AD3F84434C2F87035FFF7CA
:1011F4000BFE0346002B05D0394B1B68394A03F01C
:101204004F031360FFF744FE0346002B0DD04FF04D
:101214008043D3F8003403F00103002B05D04FF0D2
:1012240080436FF00102C3F80024FFF775FE034604
:10123400002B05D02C4B1B682B4A43F480631360AE
:101244002A4BD3F88830294A43F47003C2F8883013
:10125400BFF34F8F00BFBFF36F8F00BFFFF7BCFE1C
:101264004FF01023D3F80032002B05DB4FF010238E
:10127400D3F80432002B15DA0120FFF7C9FE4FF032
:1012840010231522C3F80022FFF7B6FE4FF01023F7
:101294001522C3F80422FFF7AFFE0020FFF7B8FEC3
:1012A400FFF7BEFBFFF7C4FE00BF08BD2403001018
:1012B4004035014074C007400DF0ADBA440200103F
:1012C4003C050040F0ED00E0A00500401056004051
:1012D40088560040185600401456004000C0004094
:1012E40058020010E40E00403C17004000ED00E0FE
:1012F40064DF704700BF184686B0039001921A4617
:101304000B46ADF80A3013468DF80930039B002BC9
:1013140002D0019B002B01D100235BE00023ADF838
:1013240016300CE0BDF81630039A13441B781A46A5
:10133400BDF8163013449BB20133ADF81630BDF836
:1013440016305A1CBDF80A309A420FDA019B1B88EA
:10135400BDF816209A42E5D3BDF816300133039A3E
:1013640013441B789DF809209A42DBD1BDF816205E
:10137400BDF80A309A4201D300232BE0BDF81630A1
:101384000233ADF81430BDF81630039A13441B78B9
:10139400002B07D0BDF81630039A13441B78013B89
:1013A4009BB200E00023ADF81230BDF81230002BE0
:1013B40008D0BDF81420BDF812301A44BDF80A3024
:1013C4009A4201DD002305E0019BBDF814201A8038
:1013D400BDF81230184606B0704700B58FB00390C0
:1013E4000B460192ADF80A300023ADF826301023E5
:1013F4008DF82530BDF80A30ADF8363005AA0DF168
:10140400250319460198FFF773FF0B90039B002BEC
:1014140002D00B9B002B01D0002370E09DF82530F7
:10142400102B14D0102B19DC022B02D0042B07D064
:1014340014E003238DF8103002238DF811300FE0EF
:1014440005238DF8103004238DF8113008E00723AC
:101454008DF8103006238DF8113001E000234EE0A2
:1014640000238DF8353014E09DF8353038336B4463
:1014740013F8283C0DF12602BDF80A100398FFF773
:101484003BFF0346ADF836309DF8353001338DF817
:1014940035309DF83530012B03D8BDF82630002BAC
:1014A400E2D0BDF82630002B01D1002327E0BDF89F
:1014B40026301A46039B13440A930023ADF83230B6
:1014C40016E0BDF832300A9A13449DF8252005A988
:1014D400184602F09BF80346002B01D101230EE0CD
:1014E4009DF825301A46BDF832301344ADF8323039
:1014F400BDF83220BDF836309A42E2D300231846B4
:101504000FB05DF804FB90DF704700BF1846A5DFFD
:10151400704700BF1846B5DF704700BF184682B059
:101524000190019BF7221A80019B17225A80019B8C
:1015340000221A71019B00225A71019BFB229A71AD
:10154400019B1B22DA7100BF02B0704700B589B05D
:1015540003460A46ADF806301346ADF80430BDF82C
:101564000430ADF81430BDF80430ADF81630002363
:10157400ADF818300023ADF81A3003AB00221A601E
:101584009A8003AA05A9BDF806301846FFF7BBFFE9
:101594000790079B002B02D0BDF80C30002B079B53
:1015A400184609B05DF804FB00B587B001900091BE
:1015B400009B9B88ADF81630BDF81630DB00019A0D
:1015C400134406330493019B1A79049B9A71009B7C
:1015D400DB7B012B02D0022B05D009E0019B1A888A
:1015E400049B1A8004E0019B5A88049B1A8000BF64
:1015F400049B1A88049B5B889A4215D9049B1A8819
:10160400BDF8163011461846FFF781FF0390039B7F
:10161400002B03D1049B01225A7105E0039B112B7B
:1016240002D1049B01221A71049B9A79049BDB79F1
:101634009A4208D9049B9B791A46BDF81630114684
:101644001846FFF783FF00BF07B05DF804FB00B541
:1016540083B001900091009B9B88DB00019A1344A6
:1016640006331846FFF75BFF00BF03B05DF804FBC9
:1016740000B587B001900091009B9B88ADF81630AF
:10168400009B5B89ADF81430BDF81630DB00019A7D
:10169400134406330493049B1B88BDF8142093421F
:1016A40028BF13469AB2049B5A80049B5B88172B6D
:1016B40038BF17239AB2049B5A80019B1B69002BE5
:1016C40015D0049B5B79002B11D040F67723ADF83D
:1016D4000830BDF81630ADF80A30049B5B88ADF8CD
:1016E4000C30019B1B6902AA114601989847049B80
:1016F40000225A71049B00221A7100BF07B05DF8E2
:1017040004FB00B589B001900091009B9B88ADF863
:101714001E30009BDB88ADF81C30BDF81E30DB00AA
:10172400019A134406330693BDF81C30172B38BFB7
:101734001723ADF81C30069B1B88BDF81C20934270
:1017440028BF13469AB2069B5A80069B00221A7140
:10175400069B1A88BDF81E3011461846FFF7DBFEBB
:101764000590069B5B79002B16D1019B1B69002B0E
:1017740013D040F67723ADF80C30BDF81E30ADF829
:101784000E30069B5B88ADF81030019B1B6903AAE1
:1017940011460198984700E000BF09B05DF804FBCA
:1017A40030B591B001900091009B04AC1D1D0FCD8C
:1017B4000FC40FCD0FC495E8070084E80700BDF8F7
:1017C4001030ADF83E30BDF81420BDF83E30D1B233
:1017D400019ADB0013440A465A73019B1B69002BD0
:1017E40019D002AB00221A609A804DF67A23ADF824
:1017F4000830BDF83E30ADF80A30BDF83E30019AED
:10180400DB0013445B7B8DF80C30019B1B6902AA3F
:1018140011460198984700BF11B030BD00B587B09C
:1018240001900091009B04330593059B1B88DB000A
:10183400019A134406330493059B9B888DF80F305B
:10184400049B9B799DF80F20934228BF13468DF883
:101854000E30059B1B889DF80E2092B21146184647
:10186400FFF774FE00BF07B05DF804FB00B585B058
:1018740001900091019B002B01D10E231DE0019BDF
:10188400009A1A61019BF7221A80019BF7225A8061
:10189400019BFB221A71002303930AE0039BDB00E4
:1018A400019A134406331846FFF739FE039B0133AC
:1018B4000393039B002BF1D00023184605B05DF879
:1018C40004FB000000B587B001900091009B0593D4
:1018D400019B9B88ADF81230BDF81230002B40F00C
:1018E4008480019B1B88552B48D0552B55DC242B19
:1018F40032DC102B51DB103B142B4ED801A252F8D2
:1019040023F000BF631900006D1900009F19000047
:101914009F1900009F1900009F1900009F190000E3
:101924009F1900009F1900009F1900009F190000D3
:101934009F1900009F1900009F1900009F190000C3
:101944009F1900009F1900009F1900009F190000B3
:10195400951900008B1900003A2B0AD01DE001995B
:101964000598FFF721FE19E001990598FFF76FFE2E
:1019740014E001990598FFF77BFE0FE001990598A3
:10198400FFF7BFFE0AE001990598FFF709FF05E09C
:1019940001990598FFF742FF00E000BFBDF812303F
:1019A400059ADB0013449B7A002B1FD0BDF812303C
:1019B400059ADB001344DA88BDF812301146184644
:1019C400FFF7A5FD0390039B002B0FD1BDF8123048
:1019D400059ADB00134400229A72BDF81230059A6E
:1019E400DB0013440122DA7200E000BF07B05DF8A7
:1019F40004FB00BF8ADF704700BF18468BDF7047C7
:101A040000BF18468CDF704700BF184600B58DB084
:101A140001900091009B02330B93019B14330A93B2
:101A2400019B0A330993019B9B7C8DF82330019B16
:101A34001B7A83F00103DBB2002B21D100F0DDF926
:101A440002AB14220021184601F04CFE9DF823300D
:101A5400099A0A990B98FFF7D5FF079005238DF88B
:101A64000830079B0393079B002B0AD0019B5B6AFA
:101A7400002B06D0019B5B6A02AA1046984700E03F
:101A840000BF0DB05DF804FB00B587B00190009174
:101A9400009B0493009B9B798DF80F30009B1B796E
:101AA4008DF80E3000238DF81630019B9B8BADF81A
:101AB4000C3000238DF8173024E0019B98699DF8C1
:101AC40017309B00049A1A44BDF80C301946FFF7EE
:101AD40084FC0346002B0CD09DF8163001338DF89E
:101AE40016309DF80F3083F00103DBB2002B04D0D5
:101AF40010E09DF80F30002B0BD19DF81730013307
:101B04008DF817309DF817209DF80E309A42D4D3E3
:101B140000E000BF9DF80F30002B05D09DF8162083
:101B24009DF80E309A420AD09DF80F3083F00103DD
:101B3400DBB2002B05D09DF81630002B01D0012319
:101B440000E00023184607B05DF804FB00B585B03B
:101B540001900B468DF8033013468DF80230019B3B
:101B6400002B01D10E2333E09DF8033003F0020370
:101B7400002B19D19DF8033003F00103002B13D17E
:101B84009DF8033003F00403002B0DD19DF80330BE
:101B940003F01003002B07D19DF8033003F0080372
:101BA400002B01D1072313E0019800F015F80390EE
:101BB400019B02939DF8033003F00403002B02D031
:101BC400029B01225A71029B9DF802209A71002304
:101BD400184605B05DF804FB84B00190019B002B0E
:101BE40001D10E2306E0019B05330393039B0022DE
:101BF4001A700023184604B0704700B58BB00190EA
:101C0400009100238DF8273000238DF8263003AB94
:101C140014220021184601F065FD019B143307933B
:101C2400019800F07FF80346002B14D002238DF8AE
:101C34000C30009B0493019B5B6A03AA10469847EF
:101C4400019B483319460020FFF7D4FE0099019800
:101C5400FFF7DCFE63E0019B9B798DF824300023C1
:101C64008DF82530019B5B798DF823309DF8233066
:101C7400002B19D09DF8273001338DF827300199B6
:101C84000098FFF701FF0346002B0DD09DF8263086
:101C940001338DF826309DF8143043F004038DF899
:101CA400143001238DF82530009B04939DF82430D3
:101CB400002B0DD09DF826209DF827309A4207D19D
:101CC40000238DF80C3000990198FFF79FFE17E070
:101CD4009DF8243083F00103DBB2002B0BD09DF878
:101CE4002530002B07D000238DF80C300099019883
:101CF400FFF78CFE04E003238DF80C30009B049363
:101D0400019B5B6A002B04D0019B5B6A03AA10460B
:101D14009847019B483319460020FFF76BFE0BB030
:101D24005DF804FB82B00190019B1B7D03F0180356
:101D3400DBB2082B06D0019B1B7D03F01803DBB23A
:101D4400182B01D1012300E00023184602B070478C
:101D540082B00190019A137D43F004031375019B33
:101D6400A022DA82019B50221A83019B00225A830B
:101D7400019A137D23F018031375019B01225A75F0
:101D840000BF02B0704782B00190019B4FF4C8724B
:101D94001A82019B06225A81019B18229A81019B77
:101DA4000022DA8100BF02B0704700B589B001900B
:101DB4000091009B0433079302AB142200211846C0
:101DC40001F090FC079B1B78012B12D1019B5B6AED
:101DD400002B0ED004238DF80830019B1433069396
:101DE400079B1B788DF80C30019B5B6A02AA104696
:101DF400984700BF09B05DF804FB08B5FFF7FEFD86
:101E040000BF08BD10B584B0039002910192039BFA
:101E1400002B01D10E234AE0039B019A5A62039BD3
:101E240008220021184601F05DFC029B002B2BD0F8
:101E3400029B1A79039B1A72029B1A7B039B9A7466
:101E4400029B1B68002B0BD0029B1A68039B143364
:101E5400144620686168A26807C3A2891A8002E058
:101E64000398FFF775FF029B9B68002B08D0029B29
:101E74009A68039B0A331168526819605A600CE02F
:101E84000398FFF780FF08E00398FFF761FF0398CA
:101E9400FFF779FF039B00221A72039B03F12802C8
:101EA400039B9A64039B1F22A3F84C20002318462B
:101EB40004B010BD00B589B00190019B002B01D185
:101EC4000E232CE002AB14220021184601F00AFC78
:101ED400FFF793FF0198FFF725FF0346002B0BD074
:101EE400019B5B6A002B07D001238DF80830019B0E
:101EF4005B6A02AA10469847019B03F11402019BF6
:101F0400483319461046FFF775FD0790079B082BC9
:101F140004D0079B002B01D0079B00E00023184648
:101F240009B05DF804FB00B589B00190009103ABE2
:101F340014220021184601F0D5FB06238DF80C303D
:101F4400009B04330493009B1B88ADF81430019B61
:101F540014330793019B5B6A002B04D0019B5B6ADB
:101F640003AA1046984700BF09B05DF804FB00B50A
:101F740087B001900091009B0593019B0833049363
:101F8400019B04330393019B1B881D2B06D01D2B3F
:101F940013DC102B0CD01B2B05D00EE004990598F4
:101FA400FFF72BFE0AE003990598FFF7FEFE05E014
:101FB40003990598FFF7B7FF00E000BF00BF07B023
:101FC4005DF804FB82B003468DF807309DF90730B5
:101FD400002B13DB9DF8073003F01F0209499DF91C
:101FE40007305B09012000FA02F2203341F8232074
:101FF400BFF34F8F00BFBFF36F8F00BF00BF02B0AE
:10200400704700BF00E100E0044BD3F80034002B1C
:1020140014BF01230023DBB21846704700000140BF
:1020240008B5FFF7F1FF034683F00103DBB2002B91
:1020340004D000F041FA024B00229A7000BF08BDA0
:102044008800002000B583B000230193184B1B784F
:10205400002B02D0852301931CE0154B00229A60CB
:10206400134B00225A60124B00221A61104B0022BB
:10207400DA60104800F0FEF9019001F0B5F803466B
:1020840083F00103DBB2002B01D000F00DFA084B02
:1020940001221A70FFF7B8FF0346002B02D0044B4D
:1020A40001229A70019B184603B05DF804FB00BF3F
:1020B400880000206921000084B00190019B1B6806
:1020C4000393039B002B03D0039B1A68019B1A60A4
:1020D400039B184604B0704700B583B000238DF805
:1020E40007300DF10703184600F010FD094BDB68BB
:1020F400013B084AD360074BDB68002B01D1FFF793
:102104008FFF9DF80730184600F00AFD00BF03B0AA
:102114005DF804FB8800002000B585B003468DF807
:1021240007309DF80730002B02D10C4B039301E0DC
:102134000B4B03930398FFF7BFFF0290029B002B06
:1021440006D0029B5B689DF8072010469847F1E78C
:1021540000BF00BF05B05DF804FB00BF9000002085
:102164009800002000B583B003468DF807309DF831
:102174000730002B05D10A4B01225A700020FFF7CB
:10218400CBFF9DF80730012B05D1054B01229A7036
:102194000120FFF7C1FF00BF03B05DF804FB00BFDF
:1021A4008800002000B583B001900091019B002BB2
:1021B40005D1054B01225A700020FFF7ADFF00BF87
:1021C40003B05DF804FB00BF8800002000B585B0B3
:1021D400034600918DF807309DF80730032B29D072
:1021E400032B2CDC002B02D0012B04D027E0002091
:1021F400FFF7E8FE24E000238DF80F300DF10F0304
:10220400184600F083FC104B1B7883F00103DBB20B
:10221400002B01D0FFF716FF0B4BDB6801330A4A92
:10222400D360094B01229A709DF80F30184600F0D4
:1022340077FC05E000F038F9FFF74EFF00E000BF3F
:1022440000BF05B05DF804FB8800002082B003469F
:102254008DF807309DF90730002B0CDB9DF8073013
:1022640003F01F0205499DF907305B09012000FABC
:1022740002F241F8232000BF02B0704700E100E001
:1022840082B0034600918DF807309DF90730002B8A
:102294000ADB009BDAB20C499DF907305201D2B235
:1022A4000B4483F800230BE0009BDAB207499DF846
:1022B400073003F00F03043B5201D2B20B441A76E9
:1022C40000BF02B0704700BF00E100E000ED00E095
:1022D40082B00190019B1B0B5BB2184602B07047A1
:1022E40000B583B003460A468DF8073013468DF8CF
:1022F40006309DF806209DF9073011461846FFF771
:10230400BFFF00BF03B05DF804FB00B583B0034614
:102314008DF807309DF907301846FFF797FF00BF87
:1023240003B05DF804FB000082B003468DF807306B
:102334000F4A9DF90730002B00DA1F335B115BB2A3
:1023440052F823209DF90730594203F01F0301F08E
:102354001F0158BF4B425BB222FA03F303F001039F
:10236400002B14BF01230023DBB2184602B07047D0
:1023740000E100E082B001904FF08042019BC2F87E
:10238400083300BF02B0704782B003468DF80730AF
:102394009DF8073003F1804301221A6000BF02B0A8
:1023A400704784B00346ADF80630BDF8063003F13B
:1023B400804300221A60BDF8063003F180431B6895
:1023C4000393039B00BF04B0704782B00346ADF88B
:1023D4000630BDF8063003F180431B68002B14BFA0
:1023E40001230023DBB2184602B0704782B001908B
:1023F4004FF08042019BC2F8183500BF02B070470D
:102404004FF08043D3F818341B0C03F00103002B66
:1024140014BF01230023DBB21846704700B583B014
:1024240006238DF807304FF08040FFF751FF034635
:102434001846FFF779FF034683F00103DBB2002B54
:1024440013D04FF08040FFF743FF03461A469DF830
:10245400073019461046FFF743FF4FF08040FFF75F
:1024640037FF03461846FFF750FF00BF03B05DF87F
:1024740004FB000084B0019000230393094B1B79F3
:10248400002B02D08523039308E0064A019B1360C6
:10249400044B01221A71034B00225A71039B184604
:1024A40004B070479C00002008B5FFF7B7FF012077
:1024B400FFF79CFF00BF08BD08B50220FFF75AFFD5
:1024C4004FF48270FFF76DFF0C20FFF75DFF00BF34
:1024D400FFF796FF0346002BFAD100BF00BF08BDEB
:1024E40008B54FF48070FFF770FF0346002B14D03B
:1024F4004FF48070FFF755FF0120FFF73BFF114BAE
:102504005B7983F00103DBB2002B06D00D4B012273
:102514005A710C4B1B68002098474FF48270FFF7E8
:1025240054FF0346002B0AD04FF48270FFF739FFA3
:102534000220FFF71FFF034B1B680120984700BFD1
:1025440008BD00BF9C00002000B583B00346ADF871
:102554000630BDF80630184600F026F803461B681E
:10256400012B0CBF01230023DBB2184603B05DF836
:1025740004FB00B585B00346ADF80630BDF806305F
:10258400184600F011F803461A4600231360BDF8FC
:102594000630184600F008F803461B680393039BB3
:1025A40000BF05B05DF804FB82B00346ADF8063009
:1025B400BDF8063003F1804303F5C043184602B06A
:1025C4007047000082B00190034BD3F80423019BB1
:1025D4001340184602B070470060004082B001907A
:1025E400054A019B03F5A27352F823301B0A03F03A
:1025F4001F03184602B070470060004082B001908B
:10260400064A019B03F5A27352F823301B0C03F016
:102614000303DBB2184602B0704700BF00600040FD
:1026240082B001904FF0A043184602B0704700B545
:1026340085B001900B468DF8033001AB1846FFF7C7
:10264400EFFF0390019A039B02F5E07253F82230E6
:10265400019A23F44031039B02F5E07243F82210FF
:10266400019A039B02F5E07253F822109DF803309F
:102674001B04019A1943039B02F5E07243F82210EC
:1026840000BF05B05DF804FB00B585B0019001AB57
:102694001846FFF7C5FF0390019A039B02F5E07209
:1026A40053F822301B0C03F00303DBB2184605B0C9
:1026B4005DF804FB86B00390029101924FF0A043B1
:1026C4000493039B059319E0059B9B0018336B440B
:1026D40053F8083CD3F82025019B1A60059B9B0006
:1026E40018336B4453F8083C019A1268C3F8202548
:1026F400019B04330193059B01330593039A029BC9
:102704001344059A9A42DFD300BF00BF06B0704756
:1027140000B585B0019001AB1846FFF781FF039027
:10272400019B012202FA03F31A46039BC3F82025F6
:1027340000BF05B05DF804FB84B001900091009BDC
:102744000393019BDB080293019B03F007030193AE
:102754000122019B02FA03F30399029A0A441278B4
:102764001340184604B0704782B00190044A019B9C
:102774001344303393F90030184602B0704700BF59
:10278400A400002082B00190034A019B52F8233038
:10279400184602B0704700BFA400002084B0019026
:1027A400074A019B1344503393F900308DF80F30DE
:1027B4009DF80F3023F0C003184604B0704700BFE3
:1027C400A400002084B00190074A019B13445033B5
:1027D40093F900308DF80F309DF80F309B09DBB270
:1027E400184604B0704700BFA400002000B585B0AF
:1027F4000190019A01210020FFF75CFF002303935D
:102804000BE0039B9B00019A13441B68002B01D02F
:10281400012306E0039B01330393039B002BF0D0B9
:102824000023184605B05DF804FB000000B587B02E
:102834000190002305935BE0344A059B1344503315
:1028440093F90030B3F1FF3F4ED00598FFF7A6FF90
:10285400049001990498FFF76FFF0346002B44D0BE
:102864000598FFF7AFFF03468DF80F300498FFF784
:102874000BFF03468DF80E309DF80E30022B01D16C
:10288400032300E002238DF80D309DF80D30194626
:102894000498FFF7CCFE0498FFF73AFF0498FFF77B
:1028A40063FF03461846FFF76DFF0290029B002B5F
:1028B4001BD09DF80F30032B0FD09DF80E30022B48
:1028C40003D19DF80F30012B07D09DF80E30032B58
:1028D4000BD19DF80F30022B07D19DF80F20029BDE
:1028E40011460498984700E000BF059B0133059307
:1028F400059B032BA0D90198FFF778FF0346002B13
:1029040097D100BF00BF07B05DF804FBA40000200E
:1029140000B589B000230793002300934FF480731C
:10292400ADF81630012304930023069321E0BDF88B
:1029340016301846FFF708FE0346002B0ED0049805
:10294400FFF740FE0346002B08D0BDF816301846AA
:10295400FFF70FFE079A049B13430793049B5B0046
:102964000493BDF816300433ADF81630069B0133DA
:102974000693069B072BDAD94FF4BE70FFF7E4FDEC
:102984000346002B0DD04FF4BE70FFF7F2FD079BFA
:1029940043F0004307936B461A4601210020FFF7DA
:1029A40089FE079BDBB2002B29D00123049300236B
:1029B400069321E0049A079B1340002B16D0069837
:1029C400FFF70CFE03900698FFF718FE03468DF8F8
:1029D4000B300698FFF7D6FE0190019B002B05D023
:1029E4009DF80B20019B114603989847049B5B00BC
:1029F4000493069B01330693069B072BDAD9079BA6
:102A0400002B03DA6B461846FFF710FF00BF09B02E
:102A14005DF804FB08B5024B1B68984708BD00BF6E
:102A24000001002082B0EFF310830093009B019318
:102A340072B600BF019B184602B0704762B600BF71
:102A440000BF704700B585B00190FFF7EBFF03901E
:102A5400164B9B68002B1BD1144B01229A60144B1C
:102A6400D3F88020134B1340104A1360104B114AC3
:102A7400C3F880200E4BD3F884300C4A53600C4BBF
:102A84004FF0FF32C3F88420019B00221A7002E049
:102A9400019B01221A70039B002B01D1FFF7CEFF8B
:102AA4000023184605B05DF804FB00BF08010020B0
:102AB40000E100E0FC06FFBD00B585B003468DF8DB
:102AC4000730104B9B68002B16D09DF80730002B65
:102AD40012D1FFF7A7FF03900B4A0A4B1B68136040
:102AE400094A084B5B685360064B00229A60039BBB
:102AF400002B01D1FFF7A2FF0023184605B05DF8B3
:102B040004FB00BF0801002000E100E000B583B031
:102B140001900198FFF796FF00BF03B05DF804FB36
:102B240000B583B003468DF807309DF8073018468A
:102B3400FFF7C2FF00BF03B05DF804FB08B5044B08
:102B44001B68044A12681046984700BF08BD00BFBE
:102B5400140100201801002082B001900091019B13
:102B6400009A1A60019B1B681A68019B5A60019BBA
:102B74005A68019B1B685B689A4202D1019B002240
:102B84005A6000BF02B0704782B00190019B5B683D
:102B9400002B14D0019B5B681A46019B1B689B6841
:102BA40013441A46019B5A60019B5A68019B1B6897
:102BB4005B689A4204D1019B00225A6000E000BF86
:102BC40002B0704782B0204B0193019B02221A612C
:102BD400019B02225A61019B1C4A9A61019B1C4A77
:102BE400DA61019B4FF400721A62019B00229A621F
:102BF400019B00225A62019B0022DA62019B134A64
:102C04009A64019B134ADA64019B10221A65019BA2
:102C140000229A65019B00225A65019B0022DA6515
:102C2400019B07330C4A10681860019B0B4A10681B
:102C340018609188927999809A71019B20229A71E7
:102C440000BF02B0704700BF200100202038000000
:102C540098010020980300202C3800003038000030
:102C640000B589B003900291019200230693039B5F
:102C7400DB680593039B1B690493049A059B9A42A2
:102C840005D9049A059BD31A013B079307E0039BDC
:102C94009A680499059BCB1A1344013B0793039B41
:102CA4009A68059BD31A079A934228BF1346079341
:102CB400079A019B934228BF13460793039B5A68C4
:102CC400059B1344079A0299184600F0D9FC069A0A
:102CD400079B13440693029A079B13440293019A99
:102CE400079BD31A0193059A079B13440593039BEF
:102CF4009B68059A9A4201D100230593039B059A88
:102D0400DA60019B002BB5D1069B184609B05DF82B
:102D140004FB00B589B0039002910192039BDB6828
:102D24000793039B9A68079BD31A0693069A019B01
:102D34009A420ED9039B5A68079B1344019A02993D
:102D4400184600F09DFC079A019B1A44039BDA6025
:102D54001AE0069B0593039B5A68079B1344059A44
:102D64000299184600F08CFC019A069BD31A05932D
:102D7400039B5868029A069B1344059A194600F06F
:102D84007FFC039B059ADA6000BF09B05DF804FB81
:102D940086B00190019B1B690493019BDB6803933C
:102DA400049A039B9A4208D8019B9A68039BD21AFF
:102DB400049B1344013B059304E0049A039BD31A38
:102DC400013B0593059B184606B0704700B589B0D2
:102DD400039002910192029B0693039B5A1C134693
:102DE4005B001344DB00204A13440593059B5B6995
:102DF400022B29D0022B2ED8002B02D0012B13D06A
:102E040029E00598FFF7C4FF0490049A019B9A42B5
:102E140002D20023079321E0019B0793019A0699AC
:102E24000598FFF776FF19E00598FFF7B1FF0490C6
:102E3400019A049B934228BF13460793079A069965
:102E44000598FFF766FF09E0019A06990598FFF7D0
:102E540007FF079002E00023079300BF079B184673
:102E640009B05DF804FB00BF2001002000B587B065
:102E74000390029101920F4B1B78002B01D1FFF7B5
:102E8400A1FE00238DF813300DF113031846FFF74C
:102E94003DFE019A02990398FFF798FF05909DF86B
:102EA40013301846FFF73CFE059B184607B05DF843
:102EB40004FB00BF2001002082B003468DF80730D8
:102EC4009DF90730002B0CDB9DF8073003F01F023F
:102ED40005499DF907305B09012000FA02F241F827
:102EE400232000BF02B0704700E100E082B0034637
:102EF4008DF807309DF90730002B09DB0B4A9DF94B
:102F04000730134493F80033DBB25B09DBB20AE009
:102F1400074A9DF8073003F00F03043B13441B7E5C
:102F2400DBB25B09DBB2184602B0704700E100E097
:102F340000ED00E082B00190019B5B68184602B08E
:102F4400704710DF704700BF1846000082B0034688
:102F54008DF807309DF907301F2B0CDC9DF90730E5
:102F64000F4A22FA03F303F00103002B14BF0123D9
:102F74000023DBB210E09DF907303F2B0BDC9DF9F9
:102F84000730203B012202FA03F3002B14BF012374
:102F94000023DBB200E00123184602B0704700BFF3
:102FA400FC06FFBD82B00190019B072B07D8EC22E1
:102FB400019B42FA03F303F00103002B01D1002328
:102FC40000E00123184602B07047000000B583B04A
:102FD40003468DF807309DF907301846FFF7B6FF12
:102FE4000346002B02D142F201032EE09DF9073083
:102FF4001846FFF77BFF03461846FFF7D3FF034647
:10300400002B02D142F202031FE0124B9B68002BFB
:1030140015D09DF907305B090E4A52F823209DF81C
:10302400073003F01F03012101FA03F319469DF948
:1030340007305B090A43074941F8232004E09DF95E
:1030440007301846FFF738FF0023184603B05DF831
:1030540004FB00BF0801002000B587B003468DF8CB
:10306400073002AB14491846FFF776FD17E002ABB0
:103074001846FFF75FFF0590059B1B680493059BAB
:1030840059689DF80720049B104698470346002B77
:1030940001D111230BE002AB1846FFF775FD02AB1B
:1030A4001846FFF747FF0346002BE0D100231846DC
:1030B40007B05DF804FB00BF3838000000B587B0E6
:1030C40003468DF8073002AB11491846FFF744FD5B
:1030D40012E002AB1846FFF72DFF0590059B1B6815
:1030E4000493059B59689DF80720049B1046984754
:1030F40002AB1846FFF748FD02AB1846FFF71AFF6C
:103104000346002BE5D100BF00BF07B05DF804FB08
:103114004438000000B583B01620FFF757FF019034
:10312400019B0093009B002B04D0044AA12100982A
:10313400FDF75AF900BF03B05DF804FB5C380000EA
:1031440000B585B0234B1B78002B01D008233CE04D
:10315400214B01221A700020FFF77EFF0346112B3A
:1031640001D1002331E00020FFF7A8FF1B4B1B68AF
:10317400029300238DF807300DF107031846FFF77B
:10318400C5FC02AB16491846FFF7DBFE0390039B10
:10319400002B0CBF01230023DAB20E4B1A709DF8EA
:1031A40007301846FFF7BCFC039B002B01D0039BA0
:1031B4000BE0094B00221A700A4B00221A70FFF729
:1031C400A9FF0120FFF77AFF0023184605B05DF838
:1031D40004FB00BFA8030020AA030020C03800009D
:1031E400F7030000A9030020014B1B781846704721
:1031F400A803002000B585B06B4611491846FFF7B7
:10320400ABFC10E06B461846FFF794FE0390039B5B
:103214001B680293039B5A68029B104698476B46AF
:103224001846FFF7B1FC6B461846FFF783FE0346CA
:10323400002BE7D100BF00BF05B05DF804FB00BF61
:103244005038000008B5FFF7D5FF00BF08BD60DFA8
:10325400704700BF184669DF704700BF184661DF3A
:10326400704700BF184682B00190019B5B68184606
:1032740002B0704782B00190019B002B01D10E2354
:1032840004E0044B1A46019B1A600023184602B05E
:10329400704700BF0000002000B587B003460091CE
:1032A4008DF807300098FFF7E5FF0590059B002B8C
:1032B40001D0059B7AE002AB0C220021184600F0F5
:1032C40011FA9DF807308DF8083001238DF80A3083
:1032D4000623ADF80C30009B1A6802AB1946202077
:1032E400FFF7B9FF059002AB0C220021184600F04D
:1032F400F9F900238DF8093001238DF80A300123F0
:103304008DF80B30009B1A6802AB19464020FFF77A
:10331400A2FF059002AB0C220021184600F0E2F94E
:103324009DF807308DF80830F723ADF80A30009B7C
:103334001A6802AB19462320FFF78DFF059002ABF4
:103344000C220021184600F0CDF901238DF8083035
:10335400009B1A6802AB19460120FFF77CFF059019
:1033640002AB0C220021184600F0BCF94FF4B06304
:103374000293009B1A6802AB1946A120FFF76BFF6A
:10338400059002AB0C220021184600F0ABF99DF821
:10339400083023F001038DF80830009B1A6802AB53
:1033A4001946A020FFF757FF05900023184607B0E1
:1033B4005DF804FB00B585B00190019B1B68039385
:1033C4000198FFF744FF0290019B1B68039A9A42FD
:1033D400029B002B02D1044B01221A70029B184657
:1033E40005B05DF804FB00BFAB03002000B5ADF5EC
:1033F400077D86ABA3F505731860244B1B7883F017
:103404000103DBB2002B3BD14FF4FA73ADF8063263
:103414000DF2062202AB11461846FFF720FF8590F5
:10342400859B002B03D0859B052B22D129E002AB81
:1034340084937FAB16491846FFF78EFB11E07FABF0
:103444001846FFF710FF8390839B1B688293839B2E
:103454005A68829B1146849898477FAB1846FFF7B9
:1034640093FB7FAB1846FFF7FEFE0346002BE6D125
:10347400CAE7084A40F23B118598FCF7B5FF00E023
:1034840000BF0DF5077D5DF804FB00BFAB03002012
:10349400C4380000D038000082B00190019B5B6802
:1034A400184602B070474BDF704700BF1846000053
:1034B40000B589B0019004AB1846FFF7F4FF0790FC
:1034C400079B002B03D0079B052B20D124E002ABE4
:1034D40013491846FFF740FB11E002AB1846FFF70B
:1034E400DBFF0690069B1B680593049A069B5968AC
:1034F400059B1046984702AB1846FFF745FB02AB05
:103504001846FFF7C9FF0346002BE6D1D3E7054A67
:103514006B210798FCF768FF00BF09B05DF804FB56
:10352400383900004439000040F20801C2F20001B9
:10353400096800F000B880B50B468DF803000DF162
:1035440003000121012200F01FF89DF80310002858
:1035540008BF411E084608BD38B540F20801C2F252
:10356400000104460D6800F074F80246284621461E
:1035740000F03DF801301EBF0A20BDE83840FFF7D7
:10358400D3BF4FF0FF3038BDF8B51D4617460C4683
:103594000646184600F00FF8002803D407FB04F28F
:1035A400A24201D20020F8BD2846314600F01FF89F
:1035B400B0FBF4F0F8BD40F20801C2F2000140F2A1
:1035C4000C02C2F2000240F20403C2F200030968D2
:1035D4001B681268091A18BF01211B1A18BF01239E
:1035E4001940101A18BF0120084040427047006873
:1035F400FFF73CBC082938BF70470022C0E900210E
:1036040040F2B831C2F2000108607047042A08D3BE
:1036140050F804CB0B689C4506D1043A0431032AC4
:10362400F6D8A2B1D0F800C0086880EA0C0191FA7B
:10363400A1F1B1FA81F1B2EBD10F08D901F038014F
:103644002CFA01F2C840C0B2D1B2081A7047002067
:1036540070470178002904BF0020704700214FF013
:1036640001324358C2FA53F30431002BF9D093FAD0
:10367400A3F0B0FA80F001EBD000043870470000EA
:103684005AB3844690EA01039B071FD1830707D0EE
:1036940011F8013B00F8013B013AF7D11CE08446E4
:1036A400203A09D32DE9F007B1E8F807A0E8F807B4
:1036B400203AF9D2BDE8F0071C3205D451F8043B96
:1036C40040F8043B043AF9D2043205D011F8013B26
:1036D40000F8013B013AF9D16046704700220B0023
:1036E40011001A0084465AB3830704D000F8011B62
:1036F400013AF9D124E0C9B241EA012141EA014188
:10370400202A11D3203A2DE9F0030B460C460D462E
:103714000E460F4688468946A0E8FA03203AFBD2B3
:10372400BDE8F00320320BD0042A05D340F8041B73
:10373400043A05D0042AF9D200F8011B013AFBD15E
:043744006046704724
:08374800A921000000000000AF
:08375000D1210000000000007F
:10375800F133000000000000B53400000000000054
:10376800731F000010000020C9180000600000202E
:1037780001040000000000009D0900000000000096
:1037880046696C746572206D617463682E00000070
:103798005363616E2074696D6564206F75742E00C3
:1037A800433A5C55736572735C6C656374695C4419
:1037B80065736B746F705C4C6F63616C50726F6A89
:1037C800656374735C416476656E7475726544658F
:1037D8007369676E32342D315C496F74446576695C
:1037E80063655C6E524635323833325C6D61696EA2
:1037F8002E630000001002005374617274696E67D2
:1038080020424C45207363616E2E2E2E000000006E
:10381800111213140D0E0F105465726D696E616CE0
:1038280000000000525454005345474745520000D9
:1038380050370000503700000800000050370000E3
:1038480058370000080000005837000068370000AB
:1038580008000000433A5C55736572735C6C6563DD
:1038680074695C446F63756D656E74735C5345472A
:1038780047455220456D62656464656420537475DC
:1038880064696F2050726F6A656374735C73646BEC
:103898005C636F6D706F6E656E74735C736F667466
:1038A8006465766963655C636F6D6D6F6E5C6E727F
:1038B800665F7364682E63000010020168370000B9
:1038C8008837000008000000433A5C55736572733E
:1038D8005C6C656374695C446F63756D656E747365
:1038E8005C53454747455220456D6265646465648D
:1038F8002053747564696F2050726F6A65637473BE
:103908005C73646B5C636F6D706F6E656E74735C13
:10391800736F66746465766963655C636F6D6D6FFC
:103928006E5C6E72665F7364685F626C652E6300BE
:10393800483700005037000008000000433A5C5543
:10394800736572735C6C656374695C446F63756DF1
:10395800656E74735C53454747455220456D6265F3
:10396800646465642053747564696F2050726F6A6B
:10397800656374735C73646B5C636F6D706F6E65A5
:103988006E74735C736F66746465766963655C6393
:103998006F6D6D6F6E5C6E72665F7364685F736F78
:0439A800632E630027
:1039AC000090D003AC030020B0030020B40300202F
:0400000300000219DE
:00000001FF
